{"abi":[{"type":"constructor","inputs":[],"stateMutability":"nonpayable"},{"type":"function","name":"admin","inputs":[],"outputs":[{"name":"","type":"address","internalType":"address"}],"stateMutability":"view"},{"type":"function","name":"createPlan","inputs":[{"name":"price","type":"uint256","internalType":"uint256"},{"name":"interval","type":"uint256","internalType":"uint256"}],"outputs":[{"name":"","type":"uint256","internalType":"uint256"}],"stateMutability":"nonpayable"},{"type":"function","name":"deposit","inputs":[],"outputs":[],"stateMutability":"payable"},{"type":"function","name":"getPlans","inputs":[{"name":"max","type":"uint256","internalType":"uint256"}],"outputs":[{"name":"","type":"uint256[]","internalType":"uint256[]"}],"stateMutability":"view"},{"type":"function","name":"getUserBalance","inputs":[{"name":"user","type":"address","internalType":"address"}],"outputs":[{"name":"","type":"uint256","internalType":"uint256"}],"stateMutability":"view"},{"type":"function","name":"isProviderRegistered","inputs":[{"name":"provider","type":"address","internalType":"address"}],"outputs":[{"name":"","type":"bool","internalType":"bool"}],"stateMutability":"view"},{"type":"function","name":"nextPlanId","inputs":[],"outputs":[{"name":"","type":"uint256","internalType":"uint256"}],"stateMutability":"view"},{"type":"function","name":"nextSubscriptionId","inputs":[],"outputs":[{"name":"","type":"uint256","internalType":"uint256"}],"stateMutability":"view"},{"type":"function","name":"planInterval","inputs":[{"name":"","type":"uint256","internalType":"uint256"}],"outputs":[{"name":"","type":"uint256","internalType":"uint256"}],"stateMutability":"view"},{"type":"function","name":"planPrice","inputs":[{"name":"","type":"uint256","internalType":"uint256"}],"outputs":[{"name":"","type":"uint256","internalType":"uint256"}],"stateMutability":"view"},{"type":"function","name":"planProvider","inputs":[{"name":"","type":"uint256","internalType":"uint256"}],"outputs":[{"name":"","type":"address","internalType":"address"}],"stateMutability":"view"},{"type":"function","name":"processSubscriptionPayment","inputs":[{"name":"subscriptionId","type":"uint256","internalType":"uint256"}],"outputs":[],"stateMutability":"nonpayable"},{"type":"function","name":"protocolFeeBps","inputs":[],"outputs":[{"name":"","type":"uint256","internalType":"uint256"}],"stateMutability":"view"},{"type":"function","name":"registerProvider","inputs":[{"name":"name","type":"string","internalType":"string"}],"outputs":[],"stateMutability":"nonpayable"},{"type":"function","name":"registeredProviders","inputs":[{"name":"","type":"address","internalType":"address"}],"outputs":[{"name":"","type":"bool","internalType":"bool"}],"stateMutability":"view"},{"type":"function","name":"subscribe","inputs":[{"name":"planId","type":"uint256","internalType":"uint256"}],"outputs":[{"name":"","type":"uint256","internalType":"uint256"}],"stateMutability":"payable"},{"type":"function","name":"subscriptionActive","inputs":[{"name":"","type":"uint256","internalType":"uint256"}],"outputs":[{"name":"","type":"bool","internalType":"bool"}],"stateMutability":"view"},{"type":"function","name":"subscriptionLastPayment","inputs":[{"name":"","type":"uint256","internalType":"uint256"}],"outputs":[{"name":"","type":"uint256","internalType":"uint256"}],"stateMutability":"view"},{"type":"function","name":"subscriptionPlanId","inputs":[{"name":"","type":"uint256","internalType":"uint256"}],"outputs":[{"name":"","type":"uint256","internalType":"uint256"}],"stateMutability":"view"},{"type":"function","name":"subscriptionSubscriber","inputs":[{"name":"","type":"uint256","internalType":"uint256"}],"outputs":[{"name":"","type":"address","internalType":"address"}],"stateMutability":"view"},{"type":"function","name":"userEscrowBalance","inputs":[{"name":"","type":"address","internalType":"address"}],"outputs":[{"name":"","type":"uint256","internalType":"uint256"}],"stateMutability":"view"},{"type":"function","name":"withdraw","inputs":[{"name":"amount","type":"uint256","internalType":"uint256"}],"outputs":[],"stateMutability":"nonpayable"},{"type":"event","name":"EscrowDeposit","inputs":[{"name":"user","type":"address","indexed":true,"internalType":"address"},{"name":"amount","type":"uint256","indexed":false,"internalType":"uint256"},{"name":"newBalance","type":"uint256","indexed":false,"internalType":"uint256"}],"anonymous":false},{"type":"event","name":"EscrowWithdrawal","inputs":[{"name":"user","type":"address","indexed":true,"internalType":"address"},{"name":"amount","type":"uint256","indexed":false,"internalType":"uint256"},{"name":"newBalance","type":"uint256","indexed":false,"internalType":"uint256"}],"anonymous":false},{"type":"event","name":"PaymentProcessed","inputs":[{"name":"from","type":"address","indexed":true,"internalType":"address"},{"name":"to","type":"address","indexed":true,"internalType":"address"},{"name":"amount","type":"uint256","indexed":false,"internalType":"uint256"},{"name":"subscriptionId","type":"uint256","indexed":true,"internalType":"uint256"}],"anonymous":false},{"type":"event","name":"PlanCreated","inputs":[{"name":"planId","type":"uint256","indexed":true,"internalType":"uint256"},{"name":"provider","type":"address","indexed":true,"internalType":"address"},{"name":"price","type":"uint256","indexed":false,"internalType":"uint256"},{"name":"interval","type":"uint256","indexed":false,"internalType":"uint256"}],"anonymous":false},{"type":"event","name":"ProviderEarnings","inputs":[{"name":"provider","type":"address","indexed":true,"internalType":"address"},{"name":"planId","type":"uint256","indexed":true,"internalType":"uint256"},{"name":"amount","type":"uint256","indexed":false,"internalType":"uint256"}],"anonymous":false},{"type":"event","name":"ProviderRegistered","inputs":[{"name":"provider","type":"address","indexed":true,"internalType":"address"},{"name":"name","type":"string","indexed":false,"internalType":"string"}],"anonymous":false},{"type":"event","name":"SubscriptionCreated","inputs":[{"name":"subscriptionId","type":"uint256","indexed":true,"internalType":"uint256"},{"name":"user","type":"address","indexed":true,"internalType":"address"},{"name":"planId","type":"uint256","indexed":true,"internalType":"uint256"}],"anonymous":false}],"bytecode":{"object":"0x608060405260fa60015560016002556001600355348015601d575f5ffd5b50335f5f6101000a81548173ffffffffffffffffffffffffffffffffffffffff021916908373ffffffffffffffffffffffffffffffffffffffff1602179055506121ab8061006a5f395ff3fe608060405260043610610134575f3560e01c8063b1118762116100aa578063d9ac40221161006e578063d9ac40221461046e578063da58935f14610496578063e7747ccb146104c0578063ec28ff44146104fc578063f793d37a14610538578063f851a4401461057457610134565b8063b111876214610374578063b197df54146103b0578063b95be6fb146103ec578063c59cadd414610428578063d0e30db01461046457610134565b80633b834eae116100fc5780633b834eae14610232578063477348921461026e5780635f8d26b2146102aa57806365580a29146102d45780639875c69a146103105780639e3795691461033857610134565b80630f574ba7146101385780631ead914e14610168578063241eee4f146101a45780632e1a7d4d146101e057806335659fb814610208575b5f5ffd5b610152600480360381019061014d91906117fc565b61059e565b60405161015f9190611836565b60405180910390f35b348015610173575f5ffd5b5061018e600480360381019061018991906118a9565b610ad2565b60405161019b91906118ee565b60405180910390f35b3480156101af575f5ffd5b506101ca60048036038101906101c591906118a9565b610b24565b6040516101d79190611836565b60405180910390f35b3480156101eb575f5ffd5b50610206600480360381019061020191906117fc565b610b39565b005b348015610213575f5ffd5b5061021c610ceb565b6040516102299190611836565b60405180910390f35b34801561023d575f5ffd5b50610258600480360381019061025391906117fc565b610cf1565b60405161026591906118ee565b60405180910390f35b348015610279575f5ffd5b50610294600480360381019061028f91906118a9565b610d0e565b6040516102a19190611836565b60405180910390f35b3480156102b5575f5ffd5b506102be610d54565b6040516102cb9190611836565b60405180910390f35b3480156102df575f5ffd5b506102fa60048036038101906102f591906117fc565b610d5a565b60405161030791906119be565b60405180910390f35b34801561031b575f5ffd5b50610336600480360381019061033191906117fc565b610e78565b005b348015610343575f5ffd5b5061035e600480360381019061035991906117fc565b611254565b60405161036b9190611836565b60405180910390f35b34801561037f575f5ffd5b5061039a600480360381019061039591906117fc565b611269565b6040516103a791906119ed565b60405180910390f35b3480156103bb575f5ffd5b506103d660048036038101906103d19190611a06565b611299565b6040516103e39190611836565b60405180910390f35b3480156103f7575f5ffd5b50610412600480360381019061040d91906117fc565b61145f565b60405161041f9190611836565b60405180910390f35b348015610433575f5ffd5b5061044e600480360381019061044991906117fc565b611474565b60405161045b9190611836565b60405180910390f35b61046c611489565b005b348015610479575f5ffd5b50610494600480360381019061048f9190611aa5565b6115ad565b005b3480156104a1575f5ffd5b506104aa611735565b6040516104b79190611836565b60405180910390f35b3480156104cb575f5ffd5b506104e660048036038101906104e191906118a9565b61173b565b6040516104f391906118ee565b60405180910390f35b348015610507575f5ffd5b50610522600480360381019061051d91906117fc565b611758565b60405161052f9190611836565b60405180910390f35b348015610543575f5ffd5b5061055e600480360381019061055991906117fc565b61176d565b60405161056b91906119ed565b60405180910390f35b34801561057f575f5ffd5b5061058861179d565b60405161059591906119ed565b60405180910390f35b5f5f73ffffffffffffffffffffffffffffffffffffffff1660055f8481526020019081526020015f205f9054906101000a900473ffffffffffffffffffffffffffffffffffffffff1673ffffffffffffffffffffffffffffffffffffffff160361063d576040517f08c379a000000000000000000000000000000000000000000000000000000000815260040161063490611b4a565b60405180910390fd5b5f60065f8481526020019081526020015f205490505f34111561073b5734600c5f3373ffffffffffffffffffffffffffffffffffffffff1673ffffffffffffffffffffffffffffffffffffffff1681526020019081526020015f205f8282546106a69190611b95565b925050819055503373ffffffffffffffffffffffffffffffffffffffff167f80f2f9d546f08b9e1900fa72f4c224c75a498a4678d6a0028b35a3538a26356d34600c5f3373ffffffffffffffffffffffffffffffffffffffff1673ffffffffffffffffffffffffffffffffffffffff1681526020019081526020015f2054604051610732929190611bc8565b60405180910390a25b80600c5f3373ffffffffffffffffffffffffffffffffffffffff1673ffffffffffffffffffffffffffffffffffffffff1681526020019081526020015f205410156107bb576040517f08c379a00000000000000000000000000000000000000000000000000000000081526004016107b290611c39565b60405180910390fd5b5f612710600154836107cd9190611c57565b6107d79190611cc5565b90505f81836107e69190611cf5565b90505f60035f8154809291906107fb90611d28565b9190505590508560085f8381526020019081526020015f20819055503360095f8381526020019081526020015f205f6101000a81548173ffffffffffffffffffffffffffffffffffffffff021916908373ffffffffffffffffffffffffffffffffffffffff16021790555042600a5f8381526020019081526020015f20819055506001600b5f8381526020019081526020015f205f6101000a81548160ff02191690831515021790555083600c5f3373ffffffffffffffffffffffffffffffffffffffff1673ffffffffffffffffffffffffffffffffffffffff1681526020019081526020015f205f8282546108f19190611cf5565b9250508190555060055f8781526020019081526020015f205f9054906101000a900473ffffffffffffffffffffffffffffffffffffffff1673ffffffffffffffffffffffffffffffffffffffff166108fc8390811502906040515f60405180830381858888f1935050505015801561096b573d5f5f3e3d5ffd5b50853373ffffffffffffffffffffffffffffffffffffffff16827f3e75811fcdc5db4445d1b26e2fa3376b5301c1b9b48222ac87952e55f48769ac60405160405180910390a48060055f8881526020019081526020015f205f9054906101000a900473ffffffffffffffffffffffffffffffffffffffff1673ffffffffffffffffffffffffffffffffffffffff163373ffffffffffffffffffffffffffffffffffffffff167fa6c1325e03b867ee45303c64111dc7e52670f1da44597390374b5210cda6508d85604051610a3f9190611836565b60405180910390a48560055f8881526020019081526020015f205f9054906101000a900473ffffffffffffffffffffffffffffffffffffffff1673ffffffffffffffffffffffffffffffffffffffff167fe76d031671a02b002b59dd4bb784e692e21964897571052bcb76a73c592063f184604051610abe9190611836565b60405180910390a380945050505050919050565b5f60045f8373ffffffffffffffffffffffffffffffffffffffff1673ffffffffffffffffffffffffffffffffffffffff1681526020019081526020015f205f9054906101000a900460ff169050919050565b600c602052805f5260405f205f915090505481565b80600c5f3373ffffffffffffffffffffffffffffffffffffffff1673ffffffffffffffffffffffffffffffffffffffff1681526020019081526020015f205410158015610b8557505f81115b610bc4576040517f08c379a0000000000000000000000000000000000000000000000000000000008152600401610bbb90611db9565b60405180910390fd5b80600c5f3373ffffffffffffffffffffffffffffffffffffffff1673ffffffffffffffffffffffffffffffffffffffff1681526020019081526020015f205f828254610c109190611cf5565b925050819055503373ffffffffffffffffffffffffffffffffffffffff166108fc8290811502906040515f60405180830381858888f19350505050158015610c5a573d5f5f3e3d5ffd5b503373ffffffffffffffffffffffffffffffffffffffff167f2c5e2a68f3d1d996e78485c02e20df118e7ae0d03e1660a2759d67a55d10fdef82600c5f3373ffffffffffffffffffffffffffffffffffffffff1673ffffffffffffffffffffffffffffffffffffffff1681526020019081526020015f2054604051610ce0929190611bc8565b60405180910390a250565b60015481565b600b602052805f5260405f205f915054906101000a900460ff1681565b5f600c5f8373ffffffffffffffffffffffffffffffffffffffff1673ffffffffffffffffffffffffffffffffffffffff1681526020019081526020015f20549050919050565b60025481565b60605f8267ffffffffffffffff811115610d7757610d76611dd7565b5b604051908082528060200260200182016040528015610da55781602001602082028036833780820191505090505b5090505f5f90505f600190505b60025481108015610dc257508482105b15610e6a575f73ffffffffffffffffffffffffffffffffffffffff1660055f8381526020019081526020015f205f9054906101000a900473ffffffffffffffffffffffffffffffffffffffff1673ffffffffffffffffffffffffffffffffffffffff1614610e575780838380610e3790611d28565b945081518110610e4a57610e49611e04565b5b6020026020010181815250505b8080610e6290611d28565b915050610db2565b508082528192505050919050565b600b5f8281526020019081526020015f205f9054906101000a900460ff16610ed5576040517f08c379a0000000000000000000000000000000000000000000000000000000008152600401610ecc90611e7b565b60405180910390fd5b5f60095f8381526020019081526020015f205f9054906101000a900473ffffffffffffffffffffffffffffffffffffffff1690505f60085f8481526020019081526020015f205490505f60065f8381526020019081526020015f205490505f60075f8481526020019081526020015f205490505f600a5f8781526020019081526020015f205490508181610f699190611b95565b421015610fab576040517f08c379a0000000000000000000000000000000000000000000000000000000008152600401610fa290611ee3565b60405180910390fd5b82600c5f8773ffffffffffffffffffffffffffffffffffffffff1673ffffffffffffffffffffffffffffffffffffffff1681526020019081526020015f2054101561102b576040517f08c379a000000000000000000000000000000000000000000000000000000000815260040161102290611c39565b60405180910390fd5b5f6127106001548561103d9190611c57565b6110479190611cc5565b90505f81856110569190611cf5565b905084600c5f8973ffffffffffffffffffffffffffffffffffffffff1673ffffffffffffffffffffffffffffffffffffffff1681526020019081526020015f205f8282546110a49190611cf5565b9250508190555042600a5f8a81526020019081526020015f208190555060055f8781526020019081526020015f205f9054906101000a900473ffffffffffffffffffffffffffffffffffffffff1673ffffffffffffffffffffffffffffffffffffffff166108fc8290811502906040515f60405180830381858888f19350505050158015611134573d5f5f3e3d5ffd5b508760055f8881526020019081526020015f205f9054906101000a900473ffffffffffffffffffffffffffffffffffffffff1673ffffffffffffffffffffffffffffffffffffffff168873ffffffffffffffffffffffffffffffffffffffff167fa6c1325e03b867ee45303c64111dc7e52670f1da44597390374b5210cda6508d846040516111c39190611836565b60405180910390a48560055f8881526020019081526020015f205f9054906101000a900473ffffffffffffffffffffffffffffffffffffffff1673ffffffffffffffffffffffffffffffffffffffff167fe76d031671a02b002b59dd4bb784e692e21964897571052bcb76a73c592063f1836040516112429190611836565b60405180910390a35050505050505050565b6007602052805f5260405f205f915090505481565b6009602052805f5260405f205f915054906101000a900473ffffffffffffffffffffffffffffffffffffffff1681565b5f60045f3373ffffffffffffffffffffffffffffffffffffffff1673ffffffffffffffffffffffffffffffffffffffff1681526020019081526020015f205f9054906101000a900460ff16611323576040517f08c379a000000000000000000000000000000000000000000000000000000000815260040161131a90611f4b565b60405180910390fd5b5f8311801561133157505f82115b611370576040517f08c379a000000000000000000000000000000000000000000000000000000000815260040161136790611fb3565b60405180910390fd5b5f60025f81548092919061138390611d28565b9190505590503360055f8381526020019081526020015f205f6101000a81548173ffffffffffffffffffffffffffffffffffffffff021916908373ffffffffffffffffffffffffffffffffffffffff1602179055508360065f8381526020019081526020015f20819055508260075f8381526020019081526020015f20819055503373ffffffffffffffffffffffffffffffffffffffff16817ff208d0afa2b256272fcedd633a99db585f8c3bde81849a50997b20a5cfde686f868660405161144d929190611bc8565b60405180910390a38091505092915050565b6006602052805f5260405f205f915090505481565b600a602052805f5260405f205f915090505481565b5f34116114cb576040517f08c379a00000000000000000000000000000000000000000000000000000000081526004016114c29061201b565b60405180910390fd5b34600c5f3373ffffffffffffffffffffffffffffffffffffffff1673ffffffffffffffffffffffffffffffffffffffff1681526020019081526020015f205f8282546115179190611b95565b925050819055503373ffffffffffffffffffffffffffffffffffffffff167f80f2f9d546f08b9e1900fa72f4c224c75a498a4678d6a0028b35a3538a26356d34600c5f3373ffffffffffffffffffffffffffffffffffffffff1673ffffffffffffffffffffffffffffffffffffffff1681526020019081526020015f20546040516115a3929190611bc8565b60405180910390a2565b5f828290501180156115c3575060648282905011155b611602576040517f08c379a00000000000000000000000000000000000000000000000000000000081526004016115f990612083565b60405180910390fd5b60045f3373ffffffffffffffffffffffffffffffffffffffff1673ffffffffffffffffffffffffffffffffffffffff1681526020019081526020015f205f9054906101000a900460ff161561168c576040517f08c379a0000000000000000000000000000000000000000000000000000000008152600401611683906120eb565b60405180910390fd5b600160045f3373ffffffffffffffffffffffffffffffffffffffff1673ffffffffffffffffffffffffffffffffffffffff1681526020019081526020015f205f6101000a81548160ff0219169083151502179055503373ffffffffffffffffffffffffffffffffffffffff167fa00c17d90dc9545180b0d6f2e70cc74863ee2e01212b81d549aa3cb67150c9368383604051611729929190612153565b60405180910390a25050565b60035481565b6004602052805f5260405f205f915054906101000a900460ff1681565b6008602052805f5260405f205f915090505481565b6005602052805f5260405f205f915054906101000a900473ffffffffffffffffffffffffffffffffffffffff1681565b5f5f9054906101000a900473ffffffffffffffffffffffffffffffffffffffff1681565b5f5ffd5b5f5ffd5b5f819050919050565b6117db816117c9565b81146117e5575f5ffd5b50565b5f813590506117f6816117d2565b92915050565b5f60208284031215611811576118106117c1565b5b5f61181e848285016117e8565b91505092915050565b611830816117c9565b82525050565b5f6020820190506118495f830184611827565b92915050565b5f73ffffffffffffffffffffffffffffffffffffffff82169050919050565b5f6118788261184f565b9050919050565b6118888161186e565b8114611892575f5ffd5b50565b5f813590506118a38161187f565b92915050565b5f602082840312156118be576118bd6117c1565b5b5f6118cb84828501611895565b91505092915050565b5f8115159050919050565b6118e8816118d4565b82525050565b5f6020820190506119015f8301846118df565b92915050565b5f81519050919050565b5f82825260208201905092915050565b5f819050602082019050919050565b611939816117c9565b82525050565b5f61194a8383611930565b60208301905092915050565b5f602082019050919050565b5f61196c82611907565b6119768185611911565b935061198183611921565b805f5b838110156119b1578151611998888261193f565b97506119a383611956565b925050600181019050611984565b5085935050505092915050565b5f6020820190508181035f8301526119d68184611962565b905092915050565b6119e78161186e565b82525050565b5f602082019050611a005f8301846119de565b92915050565b5f5f60408385031215611a1c57611a1b6117c1565b5b5f611a29858286016117e8565b9250506020611a3a858286016117e8565b9150509250929050565b5f5ffd5b5f5ffd5b5f5ffd5b5f5f83601f840112611a6557611a64611a44565b5b8235905067ffffffffffffffff811115611a8257611a81611a48565b5b602083019150836001820283011115611a9e57611a9d611a4c565b5b9250929050565b5f5f60208385031215611abb57611aba6117c1565b5b5f83013567ffffffffffffffff811115611ad857611ad76117c5565b5b611ae485828601611a50565b92509250509250929050565b5f82825260208201905092915050565b7f506c616e206e6f7420666f756e640000000000000000000000000000000000005f82015250565b5f611b34600e83611af0565b9150611b3f82611b00565b602082019050919050565b5f6020820190508181035f830152611b6181611b28565b9050919050565b7f4e487b71000000000000000000000000000000000000000000000000000000005f52601160045260245ffd5b5f611b9f826117c9565b9150611baa836117c9565b9250828201905080821115611bc257611bc1611b68565b5b92915050565b5f604082019050611bdb5f830185611827565b611be86020830184611827565b9392505050565b7f496e73756666696369656e7420657363726f77000000000000000000000000005f82015250565b5f611c23601383611af0565b9150611c2e82611bef565b602082019050919050565b5f6020820190508181035f830152611c5081611c17565b9050919050565b5f611c61826117c9565b9150611c6c836117c9565b9250828202611c7a816117c9565b91508282048414831517611c9157611c90611b68565b5b5092915050565b7f4e487b71000000000000000000000000000000000000000000000000000000005f52601260045260245ffd5b5f611ccf826117c9565b9150611cda836117c9565b925082611cea57611ce9611c98565b5b828204905092915050565b5f611cff826117c9565b9150611d0a836117c9565b9250828203905081811115611d2257611d21611b68565b5b92915050565b5f611d32826117c9565b91507fffffffffffffffffffffffffffffffffffffffffffffffffffffffffffffffff8203611d6457611d63611b68565b5b600182019050919050565b7f496e73756666696369656e7400000000000000000000000000000000000000005f82015250565b5f611da3600c83611af0565b9150611dae82611d6f565b602082019050919050565b5f6020820190508181035f830152611dd081611d97565b9050919050565b7f4e487b71000000000000000000000000000000000000000000000000000000005f52604160045260245ffd5b7f4e487b71000000000000000000000000000000000000000000000000000000005f52603260045260245ffd5b7f496e6163746976650000000000000000000000000000000000000000000000005f82015250565b5f611e65600883611af0565b9150611e7082611e31565b602082019050919050565b5f6020820190508181035f830152611e9281611e59565b9050919050565b7f4e6f7420647565000000000000000000000000000000000000000000000000005f82015250565b5f611ecd600783611af0565b9150611ed882611e99565b602082019050919050565b5f6020820190508181035f830152611efa81611ec1565b9050919050565b7f4e6f7420726567697374657265642070726f76696465720000000000000000005f82015250565b5f611f35601783611af0565b9150611f4082611f01565b602082019050919050565b5f6020820190508181035f830152611f6281611f29565b9050919050565b7f496e76616c696420706172616d730000000000000000000000000000000000005f82015250565b5f611f9d600e83611af0565b9150611fa882611f69565b602082019050919050565b5f6020820190508181035f830152611fca81611f91565b9050919050565b7f4e6f2076616c75650000000000000000000000000000000000000000000000005f82015250565b5f612005600883611af0565b915061201082611fd1565b602082019050919050565b5f6020820190508181035f83015261203281611ff9565b9050919050565b7f496e76616c6964206e616d6500000000000000000000000000000000000000005f82015250565b5f61206d600c83611af0565b915061207882612039565b602082019050919050565b5f6020820190508181035f83015261209a81612061565b9050919050565b7f416c7265616479207265676973746572656400000000000000000000000000005f82015250565b5f6120d5601283611af0565b91506120e0826120a1565b602082019050919050565b5f6020820190508181035f830152612102816120c9565b9050919050565b828183375f83830152505050565b5f601f19601f8301169050919050565b5f6121328385611af0565b935061213f838584612109565b61214883612117565b840190509392505050565b5f6020820190508181035f83015261216c818486612127565b9050939250505056fea264697066735822122027ad8e0d613768b665c7c41212192ba8662f64263582a2d71730010343b1fa1a64736f6c634300081e0033","linkReferences":{}},"methodIdentifiers":{"admin()":"f851a440","createPlan(uint256,uint256)":"b197df54","deposit()":"d0e30db0","getPlans(uint256)":"65580a29","getUserBalance(address)":"47734892","isProviderRegistered(address)":"1ead914e","nextPlanId()":"5f8d26b2","nextSubscriptionId()":"da58935f","planInterval(uint256)":"9e379569","planPrice(uint256)":"b95be6fb","planProvider(uint256)":"f793d37a","processSubscriptionPayment(uint256)":"9875c69a","protocolFeeBps()":"35659fb8","registerProvider(string)":"d9ac4022","registeredProviders(address)":"e7747ccb","subscribe(uint256)":"0f574ba7","subscriptionActive(uint256)":"3b834eae","subscriptionLastPayment(uint256)":"c59cadd4","subscriptionPlanId(uint256)":"ec28ff44","subscriptionSubscriber(uint256)":"b1118762","userEscrowBalance(address)":"241eee4f","withdraw(uint256)":"2e1a7d4d"},"id":16}